{"abi":[{"type":"receive","stateMutability":"payable"},{"type":"function","name":"collect","inputs":[{"name":"token","type":"address","internalType":"address"}],"outputs":[],"stateMutability":"nonpayable"},{"type":"function","name":"vault","inputs":[],"outputs":[{"name":"vault_","type":"address","internalType":"address payable"}],"stateMutability":"view"},{"type":"event","name":"XcashCollected","inputs":[{"name":"token","type":"address","indexed":true,"internalType":"address"},{"name":"amount","type":"uint256","indexed":false,"internalType":"uint256"}],"anonymous":false},{"type":"event","name":"XcashNativeReceived","inputs":[{"name":"from","type":"address","indexed":true,"internalType":"address"},{"name":"amount","type":"uint256","indexed":false,"internalType":"uint256"}],"anonymous":false},{"type":"error","name":"ERC20TransferFailed","inputs":[]},{"type":"error","name":"ForwardFailed","inputs":[]},{"type":"error","name":"InvalidVaultArgs","inputs":[]},{"type":"error","name":"ZeroAmount","inputs":[]},{"type":"error","name":"ZeroVault","inputs":[]}],"bytecode":{"object":"0x60808060405234601557610615908161001b8239f35b600080fdfe60806040526004361015610100575b361561001957600080fd5b34156100d6576040513481527f4487f6d368546870956d80d81e8c5b42062dda412d9d9f9bf2d5a1cd2dc1bb7960203392a2600080808047817f585fb2e91ab2ff6f2d3a7377e4ec52a02413c430a7df78e2be5cd94152b0cfb96020604051848152a273ffffffffffffffffffffffffffffffffffffffff610099610306565b165af16100a46102d6565b50156100ac57005b7f096dc0e10000000000000000000000000000000000000000000000000000000060005260046000fd5b7f1f2a20050000000000000000000000000000000000000000000000000000000060005260046000fd5b60003560e01c806306ec16f8146101775763fbfa77cf0361000e57346101725760007ffffffffffffffffffffffffffffffffffffffffffffffffffffffffffffffffc360112610172576020610154610306565b73ffffffffffffffffffffffffffffffffffffffff60405191168152f35b600080fd5b346101725760207ffffffffffffffffffffffffffffffffffffffffffffffffffffffffffffffffc3601126101725760043573ffffffffffffffffffffffffffffffffffffffff81168082036101725761022157504780156100d657600080808093817f585fb2e91ab2ff6f2d3a7377e4ec52a02413c430a7df78e2be5cd94152b0cfb96020604051848152a273ffffffffffffffffffffffffffffffffffffffff610099610306565b61022a9061041e565b005b90601f7fffffffffffffffffffffffffffffffffffffffffffffffffffffffffffffffe0910116810190811067ffffffffffffffff82111761026d57604052565b7f4e487b7100000000000000000000000000000000000000000000000000000000600052604160045260246000fd5b67ffffffffffffffff811161026d57601f017fffffffffffffffffffffffffffffffffffffffffffffffffffffffffffffffe01660200190565b3d15610301573d906102e78261029c565b916102f5604051938461022c565b82523d6000602084013e565b606090565b303b7fffffffffffffffffffffffffffffffffffffffffffffffffffffffffffffffd381019081116103ef5760146103566103408361029c565b9261034e604051948561022c565b80845261029c565b917fffffffffffffffffffffffffffffffffffffffffffffffffffffffffffffffe06020820193013684378051602d84303c51036103c5575160601c90811561039b57565b7fc68fcf820000000000000000000000000000000000000000000000000000000060005260046000fd5b7f53e347a80000000000000000000000000000000000000000000000000000000060005260046000fd5b7f4e487b7100000000000000000000000000000000000000000000000000000000600052601160045260246000fd5b6040517f70a0823100000000000000000000000000000000000000000000000000000000815230600482015273ffffffffffffffffffffffffffffffffffffffff821691602082602481865afa9182156105cd576000926105de575b5081156105d9576000809161048d610306565b8260405173ffffffffffffffffffffffffffffffffffffffff60208201937fa9059cbb000000000000000000000000000000000000000000000000000000008552166024820152866044820152604481526104e960648261022c565b51925af16104f56102d6565b5015610571576040517f70a08231000000000000000000000000000000000000000000000000000000008152306004820152602081602481865afa9081156105cd5760009161059b575b506105715760207f585fb2e91ab2ff6f2d3a7377e4ec52a02413c430a7df78e2be5cd94152b0cfb991604051908152a2565b7ff27f64e40000000000000000000000000000000000000000000000000000000060005260046000fd5b90506020813d6020116105c5575b816105b66020938361022c565b8101031261017257513861053f565b3d91506105a9565b6040513d6000823e3d90fd5b505050565b90916020823d60201161060d575b816105f96020938361022c565b8101031261060a575051903861047a565b80fd5b3d91506105ec56","linkReferences":{}},"methodIdentifiers":{"collect(address)":"06ec16f8","vault()":"fbfa77cf"},"id":26}